:020000040000FA
:1000000008080020F50000000F01000011010000A9
:1000100000000000000000000000000000000000E0
:1000200000000000000000000000000013010000BC
:100030000000000000000000150100001701000092
:100040001901000051010000190100001901000010
:100050001901000000000000190100001901000052
:100060001901000019010000190100001901000028
:100070001901000019010000190100001901000018
:100080001901000019010000190100001901000008
:1000900019010000190100001901000019010000F8
:1000A000190100001901000000000000000000001C
:1000B0000000000000000000000000000000000040
:1000C0000348854600F032F800480047A1020000CE
:1000D00008080020401E00BF00BF00BF00BF00BFD7
:1000E00000BF00BF00BF00BF00BF00BF00BFF1D115
:1000F000704700000321094802680A43026008486B
:1001000002680A4302600748804707480047FEE745
:10011000FEE7FEE7FEE7FEE7FEE7000024050040FD
:100120005405004055010000C1000000064C0125A7
:10013000064E05E0E36807CC2B430C3C984710348F
:10014000B442F7D3FFF7C0FF2004000030040000E2
:100150007047000010B500F06DF8002805D0074882
:1001600007494860C8130749886100F047F800282C
:1001700002D001200449886010BD0000DFFF07C0E5
:1001800000050040006C00400006004002E008C886
:10019000121F08C1002AFAD170477047002001E001
:1001A00001C1121F002AFBD17047000070B500206A
:1001B0000F49086001208107086000BF0C480068F3
:1001C0000028FBD000F0D6F80A480B494860102000
:1001D0001121032208E093000524240707252D029E
:1001E000641985006351401C8842F4D900BF70BD7A
:1001F0000001004000000020001500400C48008C69
:10020000C0B2012812D10A48808C0007000F0028D4
:100210000CD10748806AF0210840402806D10448E4
:10022000C06A0840002801D1012070470020FCE787
:10023000C00F00F01948008CC0B201282CD117481B
:10024000808C0007000F002826D11448806AF02116
:100250000840002806D11148C06A0840002801D192
:10026000012070470D48806AF0210840102806D10F
:100270000A48C06A0840002801D10120F1E7074878
:10028000806AF0210840302806D10448C06A08403E
:10029000002801D10120E4E70020E2E7C00F00F0D0
:1002A00008B5FFF783FF102000F05AF8C7B21120FD
:1002B00000F056F8C0B200903CE00026102000F09C
:1002C0004FF8C4B2112000F04BF8C5B2012F03D192
:1002D000002C01D1012006430098012803D1002DF4
:1002E00001D10220064327460095134806700020DE
:1002F0001249086001201249086000BF0F480068D9
:100300000028FBD001200E498860C86100200B49FD
:10031000C86000BF0948C0680028FBD0002007491A
:10032000086101200649086100BF044800690028EF
:10033000FBD000BFC1E7000000000020001100401A
:100340000010004001B505E00098401E00900348F1
:10035000FFF7C0FE00980028F6D108BDE7030000B3
:10036000014603480069C840C007C00F704700003D
:100370000005005010B500201F49C86007208860A4
:10038000012008611D4848621D4888621D48C861F7
:100390001D4808620020C8620120086300204861EF
:1003A0001A488861022048630846406B8007800F26
:1003B000022804D11648C863164888630BE00E482B
:1003C000406B8007800F012805D1FF200A49C863D0
:1003D000FF20083088630120012181400E4A11600E
:1003E00000BF042004494031086200020B49486004
:1003F0000320FFF7A7FF10BD00150040E7C2C3C4EC
:10040000C8C7C6C5E7E7E7E7C2C2C20001010401E9
:10041000FFFF00002110010000E100E00013004098
:100420003004000000000020080000008C010000E3
:08043000000000000024F400AC
:04000005000000C136
:00000001FF
